{
    "_format": "hh-sol-artifact-1",
    "contractName": "Transactions",
    "sourceName": "contracts/Transactions.sol",
    "abi": [
        {
            "anonymous": false,
            "inputs": [
                {
                    "indexed": false,
                    "internalType": "address",
                    "name": "from",
                    "type": "address"
                },
                {
                    "indexed": false,
                    "internalType": "address",
                    "name": "receiver",
                    "type": "address"
                },
                {
                    "indexed": false,
                    "internalType": "uint256",
                    "name": "amount",
                    "type": "uint256"
                }
            ],
            "name": "Transfer",
            "type": "event"
        },
        {
            "inputs": [
                {
                    "internalType": "address payable",
                    "name": "receiver",
                    "type": "address"
                },
                {
                    "internalType": "uint256",
                    "name": "amount",
                    "type": "uint256"
                }
            ],
            "name": "addToBlockchain",
            "outputs": [],
            "stateMutability": "nonpayable",
            "type": "function"
        },
        {
            "inputs": [],
            "name": "getAllTransactions",
            "outputs": [
                {
                    "components": [
                        {
                            "internalType": "address",
                            "name": "sender",
                            "type": "address"
                        },
                        {
                            "internalType": "address",
                            "name": "receiver",
                            "type": "address"
                        },
                        {
                            "internalType": "uint256",
                            "name": "amount",
                            "type": "uint256"
                        }
                    ],
                    "internalType": "struct Transactions.TrasferStruct[]",
                    "name": "",
                    "type": "tuple[]"
                }
            ],
            "stateMutability": "view",
            "type": "function"
        },
        {
            "inputs": [],
            "name": "getTransactionCount",
            "outputs": [
                {
                    "internalType": "uint256",
                    "name": "",
                    "type": "uint256"
                }
            ],
            "stateMutability": "view",
            "type": "function"
        }
    ],
    "bytecode": "0x608060405234801561001057600080fd5b506106a4806100206000396000f3fe608060405234801561001057600080fd5b50600436106100415760003560e01c806327506f53146100465780632e7700f014610064578063b64782e514610082575b600080fd5b61004e61009e565b60405161005b919061046b565b60405180910390f35b61006c6101b3565b604051610079919061049c565b60405180910390f35b61009c60048036038101906100979190610526565b6101bc565b005b60606001805480602002602001604051908101604052809291908181526020016000905b828210156101aa57838290600052602060002090600302016040518060600160405290816000820160009054906101000a900473ffffffffffffffffffffffffffffffffffffffff1673ffffffffffffffffffffffffffffffffffffffff1673ffffffffffffffffffffffffffffffffffffffff1681526020016001820160009054906101000a900473ffffffffffffffffffffffffffffffffffffffff1673ffffffffffffffffffffffffffffffffffffffff1673ffffffffffffffffffffffffffffffffffffffff168152602001600282015481525050815260200190600101906100c2565b50505050905090565b60008054905090565b60016000808282546101ce9190610595565b92505081905550600160405180606001604052803373ffffffffffffffffffffffffffffffffffffffff1681526020018473ffffffffffffffffffffffffffffffffffffffff16815260200183815250908060018154018082558091505060019003906000526020600020906003020160009091909190915060008201518160000160006101000a81548173ffffffffffffffffffffffffffffffffffffffff021916908373ffffffffffffffffffffffffffffffffffffffff16021790555060208201518160010160006101000a81548173ffffffffffffffffffffffffffffffffffffffff021916908373ffffffffffffffffffffffffffffffffffffffff1602179055506040820151816002015550507fddf252ad1be2c89b69c2b068fc378daa952ba7f163c4a11628f55a4df523b3ef33838360405161031493929190610637565b60405180910390a15050565b600081519050919050565b600082825260208201905092915050565b6000819050602082019050919050565b600073ffffffffffffffffffffffffffffffffffffffff82169050919050565b60006103778261034c565b9050919050565b6103878161036c565b82525050565b6000819050919050565b6103a08161038d565b82525050565b6060820160008201516103bc600085018261037e565b5060208201516103cf602085018261037e565b5060408201516103e26040850182610397565b50505050565b60006103f483836103a6565b60608301905092915050565b6000602082019050919050565b600061041882610320565b610422818561032b565b935061042d8361033c565b8060005b8381101561045e57815161044588826103e8565b975061045083610400565b925050600181019050610431565b5085935050505092915050565b60006020820190508181036000830152610485818461040d565b905092915050565b6104968161038d565b82525050565b60006020820190506104b1600083018461048d565b92915050565b600080fd5b60006104c78261034c565b9050919050565b6104d7816104bc565b81146104e257600080fd5b50565b6000813590506104f4816104ce565b92915050565b6105038161038d565b811461050e57600080fd5b50565b600081359050610520816104fa565b92915050565b6000806040838503121561053d5761053c6104b7565b5b600061054b858286016104e5565b925050602061055c85828601610511565b9150509250929050565b7f4e487b7100000000000000000000000000000000000000000000000000000000600052601160045260246000fd5b60006105a08261038d565b91506105ab8361038d565b92508282019050808211156105c3576105c2610566565b5b92915050565b6105d28161036c565b82525050565b6000819050919050565b60006105fd6105f86105f38461034c565b6105d8565b61034c565b9050919050565b600061060f826105e2565b9050919050565b600061062182610604565b9050919050565b61063181610616565b82525050565b600060608201905061064c60008301866105c9565b6106596020830185610628565b610666604083018461048d565b94935050505056fea264697066735822122044f081e9d37868f52a3a7702c8e4f8ad42117e8cf7828f3f2192ba980d93615f64736f6c63430008130033",
    "linkReferences": {},
    "deployedLinkReferences": {}
}